:100000000C9462000C948A000C948A000C948A0070
:100010000C948A000C948A000C948A000C948A0038
:100020000C948A000C948A000C948A000C948A0028
:100030000C948A000C948A000C948A000C948A0018
:100040000C94E1030C948A000C9430010C940A0186
:100050000C948A000C948A000C948A000C948A00F8
:100060000C942B040C948A0000000000240027004C
:100070002A0000000000250028002B0000000000DE
:1000800023002600290004040404040404040202DA
:100090000202020203030303030301020408102007
:1000A0004080010204081020010204081020000012
:1000B0000008000201000003040700000000000027
:1000C0000000440D11241FBECFEFD8E0DEBFCDBF2E
:1000D00011E0A0E0B1E0EAE9F1E202C005900D9282
:1000E000A432B107D9F723E0A4E2B1E001C01D9228
:1000F000A532B207E1F710E0C2E6D0E004C02197D4
:10010000FE010E94C010C136D107C9F70E941C0928
:100110000C94CB100C940000CF92DF92EF92FF92E0
:100120000F931F93CF93DF936C017A018B01C0E093
:10013000D0E0CE15DF0589F0D8016D918D01D60193
:10014000ED91FC910190F081E02DC6010995892B7C
:1001500011F47E0102C02196ECCFC701DF91CF914F
:100160001F910F91FF90EF90DF90CF9008958CE258
:1001700092E00E94930121E0892B09F420E0822F74
:1001800008950E94C610EF92FF920F931F93CF9392
:10019000DF93EC0181E0888F9B8D8C8D981305C0D7
:1001A000E889F989808185FD24C0F62E0B8D10E049
:1001B0000F5F1F4F0F731127E02E8C8DE8120CC0BC
:1001C0000FB607FCFACFE889F989808185FFF5CF62
:1001D000CE010E94B802F1CF8B8DFE01E80FF11D18
:1001E000E35AFF4FF0820B8FEA89FB89808180629E
:1001F00007C0EE89FF896083E889F989808180647E
:10020000808381E090E0DF91CF911F910F91FF906B
:10021000EF9008951F920F920FB60F9211242F9313
:100220003F934F935F936F937F938F939F93AF937E
:10023000BF93EF93FF938CE292E00E94B802FF918C
:10024000EF91BF91AF919F918F917F916F915F914E
:100250004F913F912F910F900FBE0F901F901895C7
:100260001F920F920FB60F9211242F938F939F938B
:10027000EF93FF93E0913C02F0913D028081E09189
:100280004202F091430282FD12C0908180914502AA
:100290008F5F8F7320914602821751F0E0914502E3
:1002A000F0E0E45DFD4F958F8093450201C08081B1
:1002B000FF91EF919F918F912F910F900FBE0F9013
:1002C0001F901895FC01538D448D252F30E0842F0D
:1002D00090E0821B930B541710F0CF96089501976E
:1002E0000895FC01918D828D981761F0828DDF0158
:1002F000A80FB11D5D968C91928D9F5F9F73928F19
:1003000090E008958FEF9FEF0895FC01918D828D0D
:10031000981731F0828DE80FF11D858D90E00895DA
:100320008FEF9FEF0895FC01918D228D892F90E032
:10033000805C9F4F821B91098F739927089580E0FD
:1003400090E0892B29F00E94B70081110C940000E5
:100350000895833081F028F4813099F08230A1F043
:1003600008958730A9F08830B9F08430D1F48091B5
:1003700080008F7D03C0809180008F778093800004
:10038000089584B58F7702C084B58F7D84BD0895AC
:100390008091B0008F7703C08091B0008F7D8093F3
:1003A000B00008953FB7F8948091BB019091BC01D3
:1003B000A091BD01B091BE0126B5A89B05C02F3FFD
:1003C00019F00196A11DB11D3FBFBA2FA92F982F7B
:1003D0008827820F911DA11DB11DBC01CD0142E0F6
:1003E000660F771F881F991F4A95D1F7089585EDED
:1003F0008093BC008091BC0084FDFCCF109207026A
:10040000089540919501262F30E0240F311D2132AF
:100410003105DCF4209107022430C9F4FC0180E0AE
:1004200090E0861758F4309195012191DC01AD5888
:10043000BE4FA30FB11D2C930196F3CF8091950170
:10044000680F6093950180E0089581E0089582E04F
:1004500008950895E091C0018091BF01E81730F43C
:10046000F0E0EF53FE4F808190E008958FEF9FEF13
:1004700008959091C0018091BF01981750F4E92F21
:10048000F0E0EF53FE4F208130E09F5F9093C0017A
:1004900002C02FEF3FEFC90108958091BF0190E0A6
:1004A0002091C001821B91090895CF92DF92EF92B3
:1004B000FF920F931F93CF93DF937C01262F972FEB
:1004C0008A0180910802882391F0C62FD72F6E01F0
:1004D000C40ED51ECC15DD0571F06991D701ED91E3
:1004E000FC910190F081E02DC7010995F3CF642FB5
:1004F000822F0E940102C801DF91CF911F910F91BD
:10050000FF90EF90DF90CF900895CF93DF931F92ED
:10051000CDB7DEB76983209108022223D1F0209164
:100520002B02203240F021E030E0FC0133832283B3
:1005300080E090E015C080910902E82FF0E0E65FCE
:10054000FD4F998190838F5F8093090280932B02E6
:1005500005C061E0CE0101960E94010281E090E0B9
:100560000F90DF91CF910895089580E090E0089575
:10057000FC01848DDF01A80FB11DA35ABF4F2C9140
:10058000848D90E001968F739927848FA689B7890F
:100590002C93A089B1898C9180648C93938D848DE8
:1005A000981306C00288F389E02D80818F7D8083B7
:1005B0000895CF93DF93EC01888D8823C9F0EA89F1
:1005C000FB89808185FD05C0A889B9898C9186FD4C
:1005D0000FC00FB607FCF5CF808185FFF2CFA88949
:1005E000B9898C9185FFEDCFCE010E94B802E7CF8B
:1005F000DF91CF910895CF93DF93282F30E0F90159
:10060000E255FF4F8491F901E656FF4FD491F9016D
:10061000EA57FF4FC491CC2391F081110E94A901A8
:10062000EC2FF0E0EE0FFF1FE458FF4FA591B491BF
:10063000EC91ED2381E090E021F480E002C080E0C5
:1006400090E0DF91CF9108951F93CF93DF93282FF0
:1006500030E0F901E255FF4F8491F901E656FF4F72
:10066000D491F901EA57FF4FC491CC23C9F0162F5A
:1006700081110E94A901EC2FF0E0EE0FFF1FEE5850
:10068000FF4FA591B4918FB7F894111105C09C91BB
:10069000ED2FE095E92302C0EC91ED2BEC938FBF99
:1006A000DF91CF911F910895CF93DF9390E0FC01EC
:1006B000E656FF4F2491FC01EA57FF4F84918823AF
:1006C00061F190E0880F991FFC01E859FF4FC59137
:1006D000D491FC01EE58FF4FA591B491611109C06E
:1006E0009FB7F8948881209582238883EC912E23EC
:1006F0000BC0623061F49FB7F8943881822F8095E7
:1007000083238883EC912E2B2C939FBF06C08FB739
:10071000F894E8812E2B28838FBFDF91CF91089525
:100720008E3008F08E508770806480937C008091BA
:100730007A00806480937A0080917A0086FDFCCFF5
:10074000809178002091790090E0922B08958F920B
:100750009F92AF92BF92CF92DF92EF92FF926B0186
:100760007C010E94D2014B015C01C114D104E1045F
:10077000F104F1F00E94D201DC01CB018819990942
:10078000AA09BB09883E9340A105B10570F321E099
:10079000C21AD108E108F10888EE880E83E0981E9D
:1007A000A11CB11CC114D104E104F10419F7DDCF7F
:1007B000FF90EF90DF90CF90BF90AF909F908F9081
:1007C00008951F920F920FB60F9211242F933F930B
:1007D0008F939F93AF93BF938091240190912501B4
:1007E000A0912601B09127013091BA0123E0230F97
:1007F0002D3720F40196A11DB11D05C026E8230F59
:100800000296A11DB11D2093BA01809324019093FB
:100810002501A0932601B09327018091BB019091FF
:10082000BC01A091BD01B091BE010196A11DB11DF9
:100830008093BB019093BC01A093BD01B093BE0116
:10084000BF91AF919F918F913F912F910F900FBECC
:100850000F901F9018951F920F920FB60F921124B0
:100860002F933F934F935F936F937F938F939F93B8
:10087000AF93BF93EF93FF938091B900887F803649
:1008800009F49CC068F5883209F45BC090F48031AB
:1008900009F454C038F4882309F4F6C0883009F408
:1008A0004DC0F6C0883109F44CC0803209F45DC0F7
:1008B000EFC0803409F468C048F4803309F455C0AF
:1008C000883309F0E5C080930502D8C0803509F46B
:1008D0004FC0883509F45DC0883409F0D9C0D6C04E
:1008E000883909F4C7C0A8F4883709F467C038F418
:1008F000883609F463C0803709F460C0C9C08838FD
:1009000009F4B8C0803909F45FC0803809F0C0C06C
:100910005BC0803B09F486C038F4803A09F466C0B5
:10092000883A09F47FC0B4C0803C09F4A7C0883C71
:1009300009F4A4C0883B09F48AC0AAC08091E201EE
:1009400010C09091040280910302981770F5E09115
:10095000040281E08E0F80930402F0E0ED51FE4F1F
:1009600080818093BB0085EC86C0809305028EC099
:10097000E091040281E08E0F809304028091BB001D
:10098000F0E0ED51FE4F80839091040280910302CC
:100990006EC0E091040281E08E0F8093040280918A
:1009A000BB00F0E0ED51FE4F808380910602811183
:1009B0006DC081E08093E10184EA61C083E08093AF
:1009C00007021092B901CFCF8091B901803208F0AF
:1009D00051C0E091B90181E08E0F8093B9018091FF
:1009E000BB00F0E0E756FE4F8083BDCF85EC8093DF
:1009F000BC00109207028091B901803230F4E0917E
:100A0000B901F0E0E756FE4F10826091B90170E045
:100A1000E0919701F091980189E991E00995109290
:100A2000B90136C084E080930702109296011092BB
:100A30009501E0919301F0919401099580919501C0
:100A4000811105C081E08093950110927301E091BE
:100A5000960181E08E0F80939601F0E0ED58FE4FF5
:100A600080818093BB0090919601809195019817A9
:100A700008F479CF85E88093BC000AC085EC8093A8
:100A8000BC001092070204C0109205020E94F701F8
:100A9000FF91EF91BF91AF919F918F917F916F9156
:100AA0005F914F913F912F910F900FBE0F901F902C
:100AB00018951092070281E0809306021092E101DE
:100AC00061E082E10E94240361E083E10E9424034B
:100AD000E9EBF0E080818E7F808380818D7F808351
:100AE00088E48093B80085E48093BC000895CF9398
:100AF000DF9300D01F92CDB7DEB790EF99838A8342
:100B00006B8343E050E0BE016F5F7F4F8CE292E069
:100B10000E948C000F900F900F90DF91CF9108955D
:100B2000EF92FF921F93CF93DF9300D0CDB7DEB744
:100B3000162F7A0190EF99838A8342E050E0BE013C
:100B40006F5F7F4F8CE292E00E948C00412F50E05B
:100B5000B7018CE292E00E948C000F900F90DF9121
:100B6000CF911F91FF90EF9008950F931F93CF9314
:100B7000DF9300D0CDB7DEB7152F032FFC018081A6
:100B800091E09093080280932A0210920902109239
:100B90002B02F4E06F9FB00111246A5F7F4F89EC54
:100BA00092E02A8349830E9485024981842F912FF4
:100BB0000E94DD07812F90E00E94DD072A81822FAD
:100BC000902F0E94DD07802F90E00E94DD0781E0DA
:100BD0000F900F90DF91CF911F910F910C943507DB
:100BE0009A01211540E1340728F020E030E040E090
:100BF00050E102C040E050E00C94B505EF92FF9246
:100C00000F931F93CF93DF938C01C42FFC0180853A
:100C100091E09093080280932A02109209021092A8
:100C20002B0289EC92E00E94850281E00E94350748
:100C300061E070E080E090E00E94A7036C2FF80173
:100C400080850E94920761E070E080E090E00E9461
:100C5000A7037801D0E09091BF018091C00198175F
:100C600071F0C701801B910B8C179D0744F489EC30
:100C700092E00E943902F70181937F01ECCFDF916E
:100C8000CF911F910F91FF90EF900895CF93DF9335
:100C9000EC01888591E09093080280932A021092DB
:100CA000090210922B0289EC92E00E94850281E0F9
:100CB0000E94350761E070E080E090E00E94A703A9
:100CC00061E088850E94920761E070E080E090E03A
:100CD0000E94A7039091BF018091C001981729F04D
:100CE00089EC92E00E94390288838881DF91CF915C
:100CF0000895CF93DF93EC0120E931E0DB010E94FE
:100D0000B91024EB30E040E050E00E94A20DBA019F
:100D1000A9014A565F4F6F4F7F4F688189819A8141
:100D2000DF91CF910C94F0051F93CF93DF93EC01EB
:100D3000162F8A819B81019741F081E090E09B838F
:100D40008A8361E088810E945403612F8881DF914A
:100D5000CF911F910C942403CF93DF93EC018A81F0
:100D60009B81892B31F01B821A8260E088810E946E
:100D7000540388810E94FB0221E0892B09F420E0C2
:100D8000822FDF91CF910895CF92DF92EF92FF9261
:100D9000CF93DF93EC01CB01770FAA0BBB0B9C0128
:100DA000AD012C593F4F4F4F5F4FAEEFB1E00E9466
:100DB000C10D28EC30E040E050E00E94A20D690136
:100DC0007A018FEFC81AD108E108F1088B819C8164
:100DD0001C141D047CF0C114D104C9F020E030E0E3
:100DE00040E050E069810E94B50520E030E040E03D
:100DF00050E118C020E030E040E050E06A810E94FD
:100E0000B50520E030E040E050E169810CC020E011
:100E100030E040E050E069810E94B50520E030E01C
:100E200040E050E06A818B819C810E94B505A6015B
:100E3000D7FE04C0442755274C195D094F3F510583
:100E400019F014F04FEF50E0552784E0440F551F80
:100E50008A95E1F768818B819C81DF91CF91FF902A
:100E6000EF90DF90CF900C94F005382F20912B025B
:100E700090912A02213208F049C080910702811125
:100E8000FCCF42E040930702309306023FEF3093DD
:100E900005021092040220930302AAE0B2E043EE9E
:100EA00051E0FA013E2F341B321718F43D91319373
:100EB000F9CF1092E2012091E201990F922B9093C9
:100EC000E2019091E101913061F41092E101909181
:100ED000E2019093BB009091BC0093FDF8CF95EC9C
:100EE00001C095EE9093BC00909107029230E1F31F
:100EF000909105029F3F79F080910502803241F088
:100F000080910502803331F084E005C081E003C0A8
:100F100082E001C083E01092090210922B0210922D
:100F200008020895909107029111FCCF613208F0F8
:100F300060E291E090930702909306022FEF2093D6
:100F4000050210920402260F209303029093E201FF
:100F50009091E201880F892B8093E2018091E10159
:100F6000813061F41092E1018091E2018093BB0035
:100F70008091BC0083FDF8CF85EC01C085EE8093A5
:100F8000BC00809107028130E1F380910402861752
:100F900010F460910402A3EEB1E021EC31E0F9011C
:100FA0008E2F821B861718F48D918193F9CF1092A2
:100FB000C0016093BF01862F0895682F89EC92E0ED
:100FC0000C948502CF93C62F9091DA0221E02093F2
:100FD000080290932A021092090210922B02682FA5
:100FE00089EC92E00E9485026C2F89EC92E00E94CD
:100FF000850281E0CF910C9435074F925F926F92FA
:101000007F928F929F92AF92BF92CF92DF92EF9298
:10101000FF920F931F93CF93DF9300D000D0CDB7F3
:10102000DEB77C01072E000C880B990B0E94140F71
:1010300020E030E040E752E40E946A0E2B013C01C0
:1010400020E030E040E050E40E94710F20E030E00A
:1010500040E85FE30E94FD0D9B01AC015F7760E01B
:1010600070E080E89FE30E94FD0D8B014C01C301FD
:10107000B2010E944F0F0E94DC0E6230710551F1E7
:1010800094F461157105F9F06130710509F044C0FF
:10109000E0E070E090E080E0A12CB12CF0E8CF2EF1
:1010A000AFE3DA2E45C06430710531F1F4F06530FC
:1010B000710591F5E02F712F982D892DA12CB12C60
:1010C000C12CD12C22C058016401E0E070E090E016
:1010D00080E01BC0E02F712F982D892DA12CB12C01
:1010E00050E8C52E6FE3D62E1FC058016401E0E022
:1010F00070E090E88FE318C0E0E070E090E88FE3E4
:10110000A12CB12CC12CD12C13C000E010E030E890
:10111000832E4FE3942E0CC0E0E070E090E080E07E
:10112000A12CB12CC12CD12C00E010E0812C912CF1
:1011300020E030E0A9014E2E572E692E782EC301F3
:10114000B2010E94FE0D69837A838B839C8320E029
:1011500030E0A901B801C4010E94FE0D20E030E09A
:101160004FE753E40E944C100E94E30E262F30E01C
:10117000AFEFBFE00E94EE0D412C512C32014A949A
:10118000A30192010E94A20DA901F7016081838150
:1011900094810E94F00520E030E0A901B501C6016C
:1011A0000E94FE0D20E030E04FE753E40E944C1017
:1011B0000E94E30E262F30E0AFEFBFE00E94EE0D5D
:1011C000A30192010E94A20DA901F701618183810F
:1011D00094810E94F00520E030E04FE753E46981FC
:1011E0007A818B819C810E944C100E94E30E262FF5
:1011F00030E0AFEFBFE00E94EE0DA30192010E942C
:10120000A20DA901F7016281838194810F900F9053
:101210000F900F90DF91CF911F910F91FF90EF9062
:10122000DF90CF90BF90AF909F908F907F906F9006
:101230005F904F900C94F005CF93DF931F92CDB742
:10124000DEB7789484B5826084BD84B5816084BD46
:1012500085B5826085BD85B5816085BD80916E0054
:10126000816080936E001092810080918100826085
:1012700080938100809181008160809381008091C2
:1012800080008160809380008091B10084608093B1
:10129000B1008091B00081608093B00080917A00AD
:1012A000846080937A0080917A00826080937A00D3
:1012B00080917A00816080937A0080917A008068C2
:1012C00080937A001092C10089EC92E09093D6024C
:1012D0008093D5021092C0011092BF0110920902B2
:1012E00010922B020E9459051092C0011092BF016A
:1012F0001092090210922B020E94590560E080E0D2
:101300000E94E2078CE390E09093D9028093D80288
:101310008091DA0291E09093080280932A02109261
:10132000090210922B0260E089EC92E00E94850293
:1013300081E00E94350761E08091DA020E94920705
:1013400089EC92E00E943902182F682F6F76606155
:1013500080E00E94E20760E78EEF0E94E207612FC3
:1013600080E00E94E20765E070E080E090E00E948B
:10137000A703612F616A80E00E94E207512C20E000
:1013800030E040E050E0652D8AED92E00E94B50526
:10139000539480E15812F3CF8AED92E09093DF02EC
:1013A0008093DE021092DB02442443944092DC02DC
:1013B00022E0822E8092DD029093E4028093E30289
:1013C00025E02093E00224E02093E10223E0209333
:1013D000E2029093E7028093E60236E0932E909229
:1013E000E5029093EA028093E90227E02093E80265
:1013F0009093ED028093EC0228E02093EB0290930F
:10140000F0028093EF0229E02093EE029093F50220
:101410008093F4022EE02093F1022DE02093F2025B
:101420002FE02093F3029093FA028093F9028BE06D
:101430008093F6028AE08093F7028CE08093F802B2
:1014400088E090E09093FC028093FB0261E00E94B0
:10145000540361E08091FB020E94240387E090E046
:101460009093FE028093FD0261E00E94540361E0CC
:101470008091FD020E94240342E0642E712C709240
:1014800000036092FF0201E010E01093020300935A
:10149000010361E082E00E94540353E0A52EB12CC9
:1014A000B0920403A0920303109306030093050374
:1014B00061E083E00E94540364E0C62ED12CD092F8
:1014C0000803C092070310930A030093090361E025
:1014D00084E00E94540375E0E72EF12CF0920C0397
:1014E000E0920B0310930E0300930D0361E085E07F
:1014F0000E9454038EE090E09093100380930F03BA
:101500008FE090E0909312038093110380E190E0CC
:101510009093140380931303B0921603A0921503C3
:101520007092180360921703D0921A03C0921903A5
:10153000B0921C03A0921B03F0921E03E0921D03C5
:10154000D0922003C0921F0386E090E09093220384
:1015500080932103F0922403E0922303E0913C0264
:10156000F0913D028082E0913802F09139021082C0
:10157000E0913A02F0913B028FEC8083109244029A
:10158000E0914002F09141029082E0913E02F091A0
:101590003F02808180618083E0913E02F0913F02B2
:1015A000808188608083E0913E02F0913F028081DB
:1015B00080688083E0913E02F0913F0280818F7DC0
:1015C0008083509261014092080250922A02109248
:1015D000090210922B0263E089EC92E00E948502DE
:1015E0006EE489EC92E00E94850281E00E9435075A
:1015F00063E089E591E00E9446068111F9CF8824D5
:101600008A94B3E09B2EA12CB12C1EEFC12ED12CBD
:10161000E12CF12C0EE180E1782E9CE1692E14E2A0
:101620002FB7F8948091240190912501A091260173
:10163000B09127012FBF40916F01509170016091CF
:10164000710170917201841B950BA60BB70B853647
:101650009105A105B10508F0B8C000936E0143E003
:1016600065E086E691E00E94FE0580916601809328
:101670006301809167018093640180916801809388
:10168000650164E086E691E00E944606809362016F
:101690007092610142E064E089E591E00E94FE05FC
:1016A00080915A0190E0982F882720915901822B30
:1016B0009093580180935701809355019093560160
:1016C0006092540164E08CE491E00E9446068091AF
:1016D0004C0180934B0165E08CE491E00E9446064A
:1016E00080914C0180934A011093490146E066E0E5
:1016F00081E491E00E94FE054091410150E0542FA9
:10170000442780914201482B5093400140933F0170
:101710002091430130E0322F222780914401282B71
:1017200030933E0120933D018091450190E0982F38
:10173000882760914601862B90933C0180933B0162
:10174000409335015093360120933701309338018F
:101750008093390190933A0146E06CE081E491E096
:101760000E94FE056091410170E0762F662780910E
:101770004201682B7093340160933301409143011F
:1017800050E0542F442780914401482B509332015C
:10179000409331018091450190E0982F8827209156
:1017A0004601822B9093300180932F016093290191
:1017B00070932A0140932B0150932C0180932D01AB
:1017C00090932E010E949F012BCF2FB7F894809108
:1017D000240190912501A0912601B09127012FBFEE
:1017E00080936F0190937001A0937101B093720187
:1017F0008091FB020E94FB0261E0892B09F060E00E
:1018000080E40E9477058091FD020E94FB0261E066
:10181000892B09F060E081E40E9477058FEF92E068
:101820000E94AC06682F80E50E94770583E093E074
:101830000E94AC06682F82E50E94770587E093E05E
:101840000E94AC06682F84E50E9477058BE093E048
:101850000E94AC06682F86E50E94770580910F03F1
:101860000E9490032EEF30E0DC010E94B910A50128
:1018700094010E94A20D622F80E80E94770580915A
:1018800011030E9490032EEF30E0DC010E94B9109A
:10189000A50194010E94A20D622F81E80E947705A4
:1018A000809113030E9490032EEF30E0DC010E9430
:1018B000B910A50194010E94A20D622F82E80E9436
:1018C00077056091620181EA0E94770543E651E065
:1018D00063E080EA0E94900545E551E062E088EA15
:1018E0000E94900560914B0180EB0E94770560910A
:1018F0004A0181EB0E94770545E351E066E08BEAFF
:101900000E94900549E251E066E08CEA0E94900551
:101910008CE292E00E949301181619060CF09DCEFD
:101920008CE292E00E94710180932801803F81F750
:101930008CE292E00E9493010297D4F38CE292E051
:101940000E947101382F8CE292E039830E9471016C
:10195000BC0139813323E1F2303131F4062E000C21
:10196000770B8BED92E007C0313141F4062E000C6D
:10197000770B80EE92E00E94C406CACF303221F489
:10198000772785EE92E005C0313231F4772788EE73
:1019900092E00E947906BCCF323221F477278BEE99
:1019A00092E0F7CF333221F477278EEE92E0F1CF39
:1019B000282F303369F430E0A8E6B1E00E94EE0D44
:1019C000A70196010E94A20DB90181EF92E00EC01D
:1019D000313379F430E0A8E6B1E00E94EE0DA701C2
:1019E00096010E94A20DB90186EF92E00E94FD07C8
:1019F0008FCF80EC830F823008F48ACF313519F411
:101A00008FEF92E00EC0323519F483E093E009C005
:101A1000353519F487E093E004C0373529F48BE0BD
:101A200093E00E94940674CF303869F430E0AFEF51
:101A3000B3E00E94EE0DA70196010E94A20D622F55
:101A400080910F031EC0313869F430E0AFEFB3E08E
:101A50000E94EE0DA70196010E94A20D622F8091B7
:101A600011030FC0323809F053CF30E0AFEFB3E0CD
:101A70000E94EE0DA70196010E94A20D622F809197
:101A800013030E94240344CFECE2F2E0138212829B
:101A900088EE93E0A0E0B0E084839583A683B783CB
:101AA00024E031E03183208325EC30E03587248742
:101AB00024EC30E03787268720EC30E0318B208B18
:101AC00021EC30E0338B228B22EC30E0358B248B01
:101AD00026EC30E0378B268B118E128E138E148EEF
:101AE000E9ECF2E01382128284839583A683B783A4
:101AF00086E191E091838083E5EDF2E01286118624
:101B00001086178216821786168615861486138607
:101B1000128A118A108A158A148A138A108E178ADB
:101B2000168A138E128E118E10A2178E168E158E97
:101B3000148E15A214A213A212A211A280E682830F
:101B400085830895052E97FB1EF400940E94B90D1D
:101B500057FD07D00E94CC0D07FC03D04EF40C9427
:101B6000B90D50954095309521953F4F4F4F5F4FA0
:101B7000089590958095709561957F4F8F4F9F4FF9
:101B800008950E94EE0DA59F900DB49F900DA49F07
:101B9000800D911D11240895A1E21A2EAA1BBB1BD2
:101BA000FD010DC0AA1FBB1FEE1FFF1FA217B30729
:101BB000E407F50720F0A21BB30BE40BF50B661F3F
:101BC000771F881F991F1A9469F760957095809503
:101BD00090959B01AC01BD01CF010895A29FB0017A
:101BE000B39FC001A39F700D811D1124911DB29F51
:101BF000700D811D1124911D08955058BB27AA27EF
:101C00000E94150E0C94FA0F0E94EC0F38F00E94FF
:101C1000F30F20F039F49F3F19F426F40C94E90FE8
:101C20000EF4E095E7FB0C94BA0FE92F0E940B101D
:101C300058F3BA17620773078407950720F079F401
:101C4000A6F50C9445100EF4E0950B2EBA2FA02D9E
:101C50000B01B90190010C01CA01A0011124FF2759
:101C6000591B99F0593F50F4503E68F11A16F04054
:101C7000A22F232F342F4427585FF3CF4695379553
:101C80002795A795F0405395C9F77EF41F16BA0B18
:101C9000620B730B840BBAF09150A1F0FF0FBB1FC6
:101CA000661F771F881FC2F70EC0BA0F621F731F0F
:101CB000841F48F4879577956795B795F7959E3F6C
:101CC00008F0B0CF9395880F08F09927EE0F9795FD
:101CD000879508950E947E0E0C94FA0F0E94F30FD0
:101CE00058F00E94EC0F40F029F45F3F29F00C946B
:101CF000BA0F51110C9446100C94E90F0E940B106E
:101D000068F39923B1F3552391F3951B550BBB272A
:101D1000AA2762177307840738F09F5F5F4F220F6F
:101D2000331F441FAA1FA9F335D00E2E3AF0E0E866
:101D300032D091505040E695001CCAF72BD0FE2FB0
:101D400029D0660F771F881FBB1F26173707480744
:101D5000AB07B0E809F0BB0B802DBF01FF279358FC
:101D60005F4F3AF09E3F510578F00C94BA0F0C94F7
:101D700046105F3FE4F3983ED4F3869577956795D8
:101D8000B795F7959F5FC9F7880F911D9695879531
:101D900097F90895E1E0660F771F881FBB1F621750
:101DA00073078407BA0720F0621B730B840BBA0B0E
:101DB000EE1F88F7E09508950E94E30E6894B11134
:101DC0000C94461008950E94131088F09F5798F0C5
:101DD000B92F9927B751B0F0E1F0660F771F881F30
:101DE000991F1AF0BA95C9F714C0B13091F00E944A
:101DF0004510B1E008950C944510672F782F88277F
:101E0000B85F39F0B93FCCF3869577956795B39570
:101E1000D9F73EF490958095709561957F4F8F4FDF
:101E20009F4F0895E89409C097FB3EF490958095E4
:101E3000709561957F4F8F4F9F4F9923A9F0F92F90
:101E400096E9BB279395F695879577956795B7950E
:101E5000F111F8CFFAF4BB0F11F460FF1BC06F5FF4
:101E60007F4F8F4F9F4F16C0882311F096E911C006
:101E7000772321F09EE8872F762F05C0662371F027
:101E800096E8862F70E060E02AF09A95660F771F3B
:101E9000881FDAF7880F9695879597F908950E941D
:101EA0002D1090F09F3748F4911116F00C944610C5
:101EB00060E070E080E89FEB089526F41B16611D3A
:101EC000711D811D0C94C00F0C94DB0F0E94EC0F50
:101ED00020F019F00E94F30F50F40C94E90F0C94C9
:101EE0004610E92F0E940B1088F35523B1F3E7FB4E
:101EF0006217730784079507A8F189F3E92FFF2775
:101F000088232AF03197660F771F881FDAF7952FFD
:101F10005527442332F091505040220F331F441F65
:101F2000D2F7BB27E91BF50B621B730B840BB109BE
:101F3000B1F222F4620F731F841FB11D31972AF092
:101F4000660F771F881FBB1FEFCF9150504062F084
:101F500041F0882332F0660F771F881F9150504060
:101F6000C1F793950C94DB0F8695779567959F5FE6
:101F7000D9F7F7CF97F99F6780E870E060E00895A0
:101F8000882371F4772321F09850872B762F07C090
:101F9000662311F499270DC09051862B70E060E004
:101FA0002AF09A95660F771F881FDAF7880F9695A3
:101FB000879597F908959F3F31F0915020F48795C8
:101FC00077956795B795880F911D9695879597F9A1
:101FD00008959FEF80EC089500240A9416161706C2
:101FE00018060906089500240A941216130614060A
:101FF00005060895092E0394000C11F4882352F06D
:10200000BB0F40F4BF2B11F460FF04C06F5F7F4F24
:102010008F4F9F4F089557FD9058440F551F59F00B
:102020005F3F71F04795880F97FB991F61F09F3FC5
:1020300079F087950895121613061406551FF2CFEE
:102040004695F1DF08C0161617061806991FF1CF3E
:10205000869571056105089408950E941310A0F0FB
:10206000BEE7B91788F4BB279F3860F41616B11D78
:10207000672F782F8827985FF7CF86957795679594
:10208000B11D93959639C8F30895E894BB27662748
:102090007727CB0197F908950E945F100C94FA0FEF
:1020A0000E94EC0F38F00E94F30F20F0952311F0FE
:1020B0000C94BA0F0C94E90F11240C9446100E9452
:1020C0000B1070F3959FC1F3950F50E0551F629F61
:1020D000F001729FBB27F00DB11D639FAA27F00D81
:1020E000B11DAA1F649F6627B00DA11D661F829FA8
:1020F0002227B00DA11D621F739FB00DA11D621F8D
:10210000839FA00D611D221F749F3327A00D611DA9
:10211000231F849F600D211D822F762F6A2F11248B
:102120009F5750409AF0F1F088234AF0EE0FFF1FBE
:10213000BB1F661F771F881F91505040A9F79E3F15
:10214000510580F00C94BA0F0C9446105F3FE4F3F5
:10215000983ED4F3869577956795B795F795E7956B
:102160009F5FC1F7FE2B880F911D9695879597F974
:1021700008950E94EE0DB7FF0895821B930B0895FA
:10218000EE0FFF1F0590F491E02D099481E090E09F
:0A219000F8940C94CB10F894FFCFE4
:10219A0000000000C3008C006201D90293017101A2
:1021AA0085010000000085025502B50229024D0290
:0421BA0039022A02BA
:107E0000112484B714BE81FFF0D085E080938100F7
:107E100082E08093C00088E18093C10086E0809377
:107E2000C20080E18093C4008EE0C9D0259A86E02C
:107E300020E33CEF91E0309385002093840096BBD3
:107E4000B09BFECF1D9AA8958150A9F7CC24DD24C4
:107E500088248394B5E0AB2EA1E19A2EF3E0BF2EE7
:107E6000A2D0813461F49FD0082FAFD0023811F036
:107E7000013811F484E001C083E08DD089C08234E0
:107E800011F484E103C0853419F485E0A6D080C0E4
:107E9000853579F488D0E82EFF2485D0082F10E0AE
:107EA000102F00270E291F29000F111F8ED06801E7
:107EB0006FC0863521F484E090D080E0DECF843638
:107EC00009F040C070D06FD0082F6DD080E0C81688
:107ED00080E7D80618F4F601B7BEE895C0E0D1E017
:107EE00062D089930C17E1F7F0E0CF16F0E7DF06D8
:107EF00018F0F601B7BEE89568D007B600FCFDCFD4
:107F0000A601A0E0B1E02C9130E011968C91119780
:107F100090E0982F8827822B932B1296FA010C0160
:107F200087BEE89511244E5F5F4FF1E0A038BF0790
:107F300051F7F601A7BEE89507B600FCFDCF97BE46
:107F4000E89526C08437B1F42ED02DD0F82E2BD052
:107F50003CD0F601EF2C8F010F5F1F4F84911BD097
:107F6000EA94F801C1F70894C11CD11CFA94CF0C13
:107F7000D11C0EC0853739F428D08EE10CD085E9AC
:107F80000AD08FE07ACF813511F488E018D01DD067
:107F900080E101D065CF982F8091C00085FFFCCF94
:107FA0009093C60008958091C00087FFFCCF809118
:107FB000C00084FD01C0A8958091C6000895E0E648
:107FC000F0E098E1908380830895EDDF803219F02E
:107FD00088E0F5DFFFCF84E1DECF1F93182FE3DFCA
:107FE0001150E9F7F2DF1F91089580E0E8DFEE27F6
:047FF000FF270994CA
:027FFE00040479
:0400000300007E007B
:00000001FF
